{
  "_format": "hh-sol-artifact-1",
  "contractName": "LazyMintZone",
  "sourceName": "contracts/LazyMintZone.sol",
  "abi": [
    {
      "inputs": [
        {
          "internalType": "address",
          "name": "_signer",
          "type": "address"
        },
        {
          "internalType": "address",
          "name": "_nft",
          "type": "address"
        }
      ],
      "stateMutability": "nonpayable",
      "type": "constructor"
    },
    {
      "inputs": [
        {
          "internalType": "address",
          "name": "owner",
          "type": "address"
        }
      ],
      "name": "OwnableInvalidOwner",
      "type": "error"
    },
    {
      "inputs": [
        {
          "internalType": "address",
          "name": "account",
          "type": "address"
        }
      ],
      "name": "OwnableUnauthorizedAccount",
      "type": "error"
    },
    {
      "anonymous": false,
      "inputs": [
        {
          "indexed": true,
          "internalType": "address",
          "name": "previousOwner",
          "type": "address"
        },
        {
          "indexed": true,
          "internalType": "address",
          "name": "newOwner",
          "type": "address"
        }
      ],
      "name": "OwnershipTransferred",
      "type": "event"
    },
    {
      "inputs": [
        {
          "components": [
            {
              "internalType": "bytes32",
              "name": "orderHash",
              "type": "bytes32"
            },
            {
              "internalType": "address",
              "name": "fulfiller",
              "type": "address"
            },
            {
              "internalType": "address",
              "name": "offerer",
              "type": "address"
            },
            {
              "components": [
                {
                  "internalType": "enum ItemType",
                  "name": "itemType",
                  "type": "uint8"
                },
                {
                  "internalType": "address",
                  "name": "token",
                  "type": "address"
                },
                {
                  "internalType": "uint256",
                  "name": "identifier",
                  "type": "uint256"
                },
                {
                  "internalType": "uint256",
                  "name": "amount",
                  "type": "uint256"
                }
              ],
              "internalType": "struct SpentItem[]",
              "name": "offer",
              "type": "tuple[]"
            },
            {
              "components": [
                {
                  "internalType": "enum ItemType",
                  "name": "itemType",
                  "type": "uint8"
                },
                {
                  "internalType": "address",
                  "name": "token",
                  "type": "address"
                },
                {
                  "internalType": "uint256",
                  "name": "identifier",
                  "type": "uint256"
                },
                {
                  "internalType": "uint256",
                  "name": "amount",
                  "type": "uint256"
                },
                {
                  "internalType": "address payable",
                  "name": "recipient",
                  "type": "address"
                }
              ],
              "internalType": "struct ReceivedItem[]",
              "name": "consideration",
              "type": "tuple[]"
            },
            {
              "internalType": "bytes",
              "name": "extraData",
              "type": "bytes"
            },
            {
              "internalType": "bytes32[]",
              "name": "orderHashes",
              "type": "bytes32[]"
            },
            {
              "internalType": "uint256",
              "name": "startTime",
              "type": "uint256"
            },
            {
              "internalType": "uint256",
              "name": "endTime",
              "type": "uint256"
            },
            {
              "internalType": "bytes32",
              "name": "zoneHash",
              "type": "bytes32"
            }
          ],
          "internalType": "struct ZoneParameters",
          "name": "zoneParameters",
          "type": "tuple"
        }
      ],
      "name": "authorizeOrder",
      "outputs": [
        {
          "internalType": "bytes4",
          "name": "",
          "type": "bytes4"
        }
      ],
      "stateMutability": "nonpayable",
      "type": "function"
    },
    {
      "inputs": [],
      "name": "getSeaportMetadata",
      "outputs": [
        {
          "internalType": "string",
          "name": "name",
          "type": "string"
        },
        {
          "components": [
            {
              "internalType": "uint256",
              "name": "id",
              "type": "uint256"
            },
            {
              "internalType": "bytes",
              "name": "metadata",
              "type": "bytes"
            }
          ],
          "internalType": "struct Schema[]",
          "name": "schemas",
          "type": "tuple[]"
        }
      ],
      "stateMutability": "pure",
      "type": "function"
    },
    {
      "inputs": [],
      "name": "nft",
      "outputs": [
        {
          "internalType": "contract LazyMint1155",
          "name": "",
          "type": "address"
        }
      ],
      "stateMutability": "view",
      "type": "function"
    },
    {
      "inputs": [],
      "name": "owner",
      "outputs": [
        {
          "internalType": "address",
          "name": "",
          "type": "address"
        }
      ],
      "stateMutability": "view",
      "type": "function"
    },
    {
      "inputs": [],
      "name": "renounceOwnership",
      "outputs": [],
      "stateMutability": "nonpayable",
      "type": "function"
    },
    {
      "inputs": [
        {
          "internalType": "address",
          "name": "_nft",
          "type": "address"
        }
      ],
      "name": "setNftAddress",
      "outputs": [],
      "stateMutability": "nonpayable",
      "type": "function"
    },
    {
      "inputs": [
        {
          "internalType": "bytes4",
          "name": "interfaceId",
          "type": "bytes4"
        }
      ],
      "name": "supportsInterface",
      "outputs": [
        {
          "internalType": "bool",
          "name": "",
          "type": "bool"
        }
      ],
      "stateMutability": "view",
      "type": "function"
    },
    {
      "inputs": [
        {
          "internalType": "address",
          "name": "newOwner",
          "type": "address"
        }
      ],
      "name": "transferOwnership",
      "outputs": [],
      "stateMutability": "nonpayable",
      "type": "function"
    },
    {
      "inputs": [
        {
          "components": [
            {
              "internalType": "bytes32",
              "name": "orderHash",
              "type": "bytes32"
            },
            {
              "internalType": "address",
              "name": "fulfiller",
              "type": "address"
            },
            {
              "internalType": "address",
              "name": "offerer",
              "type": "address"
            },
            {
              "components": [
                {
                  "internalType": "enum ItemType",
                  "name": "itemType",
                  "type": "uint8"
                },
                {
                  "internalType": "address",
                  "name": "token",
                  "type": "address"
                },
                {
                  "internalType": "uint256",
                  "name": "identifier",
                  "type": "uint256"
                },
                {
                  "internalType": "uint256",
                  "name": "amount",
                  "type": "uint256"
                }
              ],
              "internalType": "struct SpentItem[]",
              "name": "offer",
              "type": "tuple[]"
            },
            {
              "components": [
                {
                  "internalType": "enum ItemType",
                  "name": "itemType",
                  "type": "uint8"
                },
                {
                  "internalType": "address",
                  "name": "token",
                  "type": "address"
                },
                {
                  "internalType": "uint256",
                  "name": "identifier",
                  "type": "uint256"
                },
                {
                  "internalType": "uint256",
                  "name": "amount",
                  "type": "uint256"
                },
                {
                  "internalType": "address payable",
                  "name": "recipient",
                  "type": "address"
                }
              ],
              "internalType": "struct ReceivedItem[]",
              "name": "consideration",
              "type": "tuple[]"
            },
            {
              "internalType": "bytes",
              "name": "extraData",
              "type": "bytes"
            },
            {
              "internalType": "bytes32[]",
              "name": "orderHashes",
              "type": "bytes32[]"
            },
            {
              "internalType": "uint256",
              "name": "startTime",
              "type": "uint256"
            },
            {
              "internalType": "uint256",
              "name": "endTime",
              "type": "uint256"
            },
            {
              "internalType": "bytes32",
              "name": "zoneHash",
              "type": "bytes32"
            }
          ],
          "internalType": "struct ZoneParameters",
          "name": "",
          "type": "tuple"
        }
      ],
      "name": "validateOrder",
      "outputs": [
        {
          "internalType": "bytes4",
          "name": "",
          "type": "bytes4"
        }
      ],
      "stateMutability": "pure",
      "type": "function"
    }
  ],
  "bytecode": "0x608060405234801561001057600080fd5b5060405161149938038061149983398181016040528101906100329190610224565b81600073ffffffffffffffffffffffffffffffffffffffff168173ffffffffffffffffffffffffffffffffffffffff16036100a55760006040517f1e4fbdf700000000000000000000000000000000000000000000000000000000815260040161009c9190610273565b60405180910390fd5b6100b4816100fd60201b60201c565b5080600160006101000a81548173ffffffffffffffffffffffffffffffffffffffff021916908373ffffffffffffffffffffffffffffffffffffffff160217905550505061028e565b60008060009054906101000a900473ffffffffffffffffffffffffffffffffffffffff169050816000806101000a81548173ffffffffffffffffffffffffffffffffffffffff021916908373ffffffffffffffffffffffffffffffffffffffff1602179055508173ffffffffffffffffffffffffffffffffffffffff168173ffffffffffffffffffffffffffffffffffffffff167f8be0079c531659141344cd1fd0a4f28419497f9722a3daafe3b4186f6b6457e060405160405180910390a35050565b600080fd5b600073ffffffffffffffffffffffffffffffffffffffff82169050919050565b60006101f1826101c6565b9050919050565b610201816101e6565b811461020c57600080fd5b50565b60008151905061021e816101f8565b92915050565b6000806040838503121561023b5761023a6101c1565b5b60006102498582860161020f565b925050602061025a8582860161020f565b9150509250929050565b61026d816101e6565b82525050565b60006020820190506102886000830184610264565b92915050565b6111fc8061029d6000396000f3fe608060405234801561001057600080fd5b50600436106100935760003560e01c80632e778efc116100665780632e778efc1461014457806347ccca0214610163578063715018a6146101815780638da5cb5b1461018b578063f2fde38b146101a957610093565b806301e4d72a1461009857806301ffc9a7146100c85780630b102d1a146100f857806317b1f94214610114575b600080fd5b6100b260048036038101906100ad9190610809565b6101c5565b6040516100bf919061088d565b60405180910390f35b6100e260048036038101906100dd91906108d4565b610298565b6040516100ef919061091c565b60405180910390f35b610112600480360381019061010d9190610995565b610312565b005b61012e60048036038101906101299190610809565b6103cd565b60405161013b919061088d565b60405180910390f35b61014c6103de565b60405161015a929190610bbf565b60405180910390f35b61016b610510565b6040516101789190610c55565b60405180910390f35b610189610536565b005b61019361054a565b6040516101a09190610c7f565b60405180910390f35b6101c360048036038101906101be9190610995565b610573565b005b600080828060a001906101d89190610ca9565b8101906101e59190610fdc565b9050600160009054906101000a900473ffffffffffffffffffffffffffffffffffffffff1673ffffffffffffffffffffffffffffffffffffffff166353086991828560400160208101906102399190610995565b6040518363ffffffff1660e01b81526004016102569291906110fb565b600060405180830381600087803b15801561027057600080fd5b505af1158015610284573d6000803e3d6000fd5b505050506301e4d72a60e01b915050919050565b60007f39dd6933000000000000000000000000000000000000000000000000000000007bffffffffffffffffffffffffffffffffffffffffffffffffffffffff1916827bffffffffffffffffffffffffffffffffffffffffffffffffffffffff1916148061030b575061030a826105f9565b5b9050919050565b61031a610663565b600073ffffffffffffffffffffffffffffffffffffffff168173ffffffffffffffffffffffffffffffffffffffff1603610389576040517f08c379a000000000000000000000000000000000000000000000000000000000815260040161038090611177565b60405180910390fd5b80600160006101000a81548173ffffffffffffffffffffffffffffffffffffffff021916908373ffffffffffffffffffffffffffffffffffffffff16021790555050565b60006317b1f94260e01b9050919050565b606080600167ffffffffffffffff8111156103fc576103fb610d11565b5b60405190808252806020026020018201604052801561043557816020015b6104226107b6565b81526020019060019003908161041a5790505b509050610bbb8160008151811061044f5761044e611197565b5b60200260200101516000018181525050600067ffffffffffffffff81111561047a57610479610d11565b5b6040519080825280601f01601f1916602001820160405280156104ac5781602001600182028036833780820191505090505b50816000815181106104c1576104c0611197565b5b602002602001015160200181905250806040518060400160405280600b81526020017f417274696172745a6f6e6500000000000000000000000000000000000000000081525090915091509091565b600160009054906101000a900473ffffffffffffffffffffffffffffffffffffffff1681565b61053e610663565b61054860006106ea565b565b60008060009054906101000a900473ffffffffffffffffffffffffffffffffffffffff16905090565b61057b610663565b600073ffffffffffffffffffffffffffffffffffffffff168173ffffffffffffffffffffffffffffffffffffffff16036105ed5760006040517f1e4fbdf70000000000000000000000000000000000000000000000000000000081526004016105e49190610c7f565b60405180910390fd5b6105f6816106ea565b50565b60007f01ffc9a7000000000000000000000000000000000000000000000000000000007bffffffffffffffffffffffffffffffffffffffffffffffffffffffff1916827bffffffffffffffffffffffffffffffffffffffffffffffffffffffff1916149050919050565b61066b6107ae565b73ffffffffffffffffffffffffffffffffffffffff1661068961054a565b73ffffffffffffffffffffffffffffffffffffffff16146106e8576106ac6107ae565b6040517f118cdaa70000000000000000000000000000000000000000000000000000000081526004016106df9190610c7f565b60405180910390fd5b565b60008060009054906101000a900473ffffffffffffffffffffffffffffffffffffffff169050816000806101000a81548173ffffffffffffffffffffffffffffffffffffffff021916908373ffffffffffffffffffffffffffffffffffffffff1602179055508173ffffffffffffffffffffffffffffffffffffffff168173ffffffffffffffffffffffffffffffffffffffff167f8be0079c531659141344cd1fd0a4f28419497f9722a3daafe3b4186f6b6457e060405160405180910390a35050565b600033905090565b604051806040016040528060008152602001606081525090565b6000604051905090565b600080fd5b600080fd5b600080fd5b60006101408284031215610800576107ff6107e4565b5b81905092915050565b60006020828403121561081f5761081e6107da565b5b600082013567ffffffffffffffff81111561083d5761083c6107df565b5b610849848285016107e9565b91505092915050565b60007fffffffff0000000000000000000000000000000000000000000000000000000082169050919050565b61088781610852565b82525050565b60006020820190506108a2600083018461087e565b92915050565b6108b181610852565b81146108bc57600080fd5b50565b6000813590506108ce816108a8565b92915050565b6000602082840312156108ea576108e96107da565b5b60006108f8848285016108bf565b91505092915050565b60008115159050919050565b61091681610901565b82525050565b6000602082019050610931600083018461090d565b92915050565b600073ffffffffffffffffffffffffffffffffffffffff82169050919050565b600061096282610937565b9050919050565b61097281610957565b811461097d57600080fd5b50565b60008135905061098f81610969565b92915050565b6000602082840312156109ab576109aa6107da565b5b60006109b984828501610980565b91505092915050565b600081519050919050565b600082825260208201905092915050565b60005b838110156109fc5780820151818401526020810190506109e1565b60008484015250505050565b6000601f19601f8301169050919050565b6000610a24826109c2565b610a2e81856109cd565b9350610a3e8185602086016109de565b610a4781610a08565b840191505092915050565b600081519050919050565b600082825260208201905092915050565b6000819050602082019050919050565b6000819050919050565b610a9181610a7e565b82525050565b600081519050919050565b600082825260208201905092915050565b6000610abe82610a97565b610ac88185610aa2565b9350610ad88185602086016109de565b610ae181610a08565b840191505092915050565b6000604083016000830151610b046000860182610a88565b5060208301518482036020860152610b1c8282610ab3565b9150508091505092915050565b6000610b358383610aec565b905092915050565b6000602082019050919050565b6000610b5582610a52565b610b5f8185610a5d565b935083602082028501610b7185610a6e565b8060005b85811015610bad5784840389528151610b8e8582610b29565b9450610b9983610b3d565b925060208a01995050600181019050610b75565b50829750879550505050505092915050565b60006040820190508181036000830152610bd98185610a19565b90508181036020830152610bed8184610b4a565b90509392505050565b6000819050919050565b6000610c1b610c16610c1184610937565b610bf6565b610937565b9050919050565b6000610c2d82610c00565b9050919050565b6000610c3f82610c22565b9050919050565b610c4f81610c34565b82525050565b6000602082019050610c6a6000830184610c46565b92915050565b610c7981610957565b82525050565b6000602082019050610c946000830184610c70565b92915050565b600080fd5b600080fd5b600080fd5b60008083356001602003843603038112610cc657610cc5610c9a565b5b80840192508235915067ffffffffffffffff821115610ce857610ce7610c9f565b5b602083019250600182023603831315610d0457610d03610ca4565b5b509250929050565b600080fd5b7f4e487b7100000000000000000000000000000000000000000000000000000000600052604160045260246000fd5b610d4982610a08565b810181811067ffffffffffffffff82111715610d6857610d67610d11565b5b80604052505050565b6000610d7b6107d0565b9050610d878282610d40565b919050565b600080fd5b610d9a81610a7e565b8114610da557600080fd5b50565b600081359050610db781610d91565b92915050565b600080fd5b600080fd5b600067ffffffffffffffff821115610de257610de1610d11565b5b610deb82610a08565b9050602081019050919050565b82818337600083830152505050565b6000610e1a610e1584610dc7565b610d71565b905082815260208101848484011115610e3657610e35610dc2565b5b610e41848285610df8565b509392505050565b600082601f830112610e5e57610e5d610dbd565b5b8135610e6e848260208601610e07565b91505092915050565b600067ffffffffffffffff821115610e9257610e91610d11565b5b610e9b82610a08565b9050602081019050919050565b6000610ebb610eb684610e77565b610d71565b905082815260208101848484011115610ed757610ed6610dc2565b5b610ee2848285610df8565b509392505050565b600082601f830112610eff57610efe610dbd565b5b8135610f0f848260208601610ea8565b91505092915050565b600060a08284031215610f2e57610f2d610d0c565b5b610f3860a0610d71565b90506000610f4884828501610980565b6000830152506020610f5c84828501610da8565b6020830152506040610f7084828501610da8565b604083015250606082013567ffffffffffffffff811115610f9457610f93610d8c565b5b610fa084828501610e49565b606083015250608082013567ffffffffffffffff811115610fc457610fc3610d8c565b5b610fd084828501610eea565b60808301525092915050565b600060208284031215610ff257610ff16107da565b5b600082013567ffffffffffffffff8111156110105761100f6107df565b5b61101c84828501610f18565b91505092915050565b61102e81610957565b82525050565b600082825260208201905092915050565b6000611050826109c2565b61105a8185611034565b935061106a8185602086016109de565b61107381610a08565b840191505092915050565b600060a0830160008301516110966000860182611025565b5060208301516110a96020860182610a88565b5060408301516110bc6040860182610a88565b50606083015184820360608601526110d48282611045565b915050608083015184820360808601526110ee8282610ab3565b9150508091505092915050565b60006040820190508181036000830152611115818561107e565b90506111246020830184610c70565b9392505050565b7f496e76616c6964204e4654206164647265737300000000000000000000000000600082015250565b60006111616013836109cd565b915061116c8261112b565b602082019050919050565b6000602082019050818103600083015261119081611154565b9050919050565b7f4e487b7100000000000000000000000000000000000000000000000000000000600052603260045260246000fdfea2646970667358221220486d65b2a125f41e4e1fa2989d9e6b8095b1e93789ab13315597bd1287171d4c64736f6c634300081c0033",
  "linkReferences": {},
  "deployedLinkReferences": {}
}